:020000040800F2
:1000000028080020E5010008473200083F320008B8
:10001000433200080D130008A1350008000000005D
:100020000000000000000000000000007532000821
:100030001113000800000000493200087732000860
:10004000FF010008FF010008FF010008FF01000890
:10005000FF010008FF01000815130008FF01000858
:1000600029130008FF0100083D130008FF010008E4
:10007000FF010008FF010008FF010008FF01000860
:10008000FF010008FF010008FF010008FF01000850
:10009000FF010008FF010008FF010008FF01000840
:1000A000FF010008FF010008FF010008FF01000830
:1000B000FF010008FF010008FF010008FF01000820
:1000C000FF010008FF010008FF010008FF01000810
:1000D000FF0100087D350008FF010008FF0100084E
:1000E000FF010008FF010008FF010008FF010008F0
:1000F000FF010008FF010008FF010008FF010008E0
:10010000FF010008FF010008FF010008FF010008CF
:10011000FF010008FF01000881320008FF0100080C
:10012000FF010008FF010008FF010008FF010008AF
:1001300000F002F800F047F80AA090E8000C8244B2
:100140008344AAF10107DA4501D100F03CF8AFF28F
:10015000090EBAE80F0013F0010F18BFFB1A43F0A5
:100160000103184790450000B0450000103A24BF35
:1001700078C878C1FAD8520724BF30C830C144BF0C
:1001800004680C607047000000230024002500264E
:10019000103A28BF78C1FBD8520728BF30C148BFEA
:1001A0000B607047662904F04C82002070471FB531
:1001B00000F0EEFA04000020002103F03DFDE060B5
:1001C0001FBD10B510BD00F0FFFB1146FFF7EFFF9C
:1001D00003F03CFC00F01DFC03B4FFF7F2FF03BC8E
:1001E00003F010FA0948804709480047FEE7FEE798
:1001F000FEE7FEE7FEE7FEE7FEE7FEE7FEE7FEE7D7
:1002000004480549054A064B704700007F32000844
:1002100031010008280200202808002028040020BE
:1002200028040020704700000FB4044910B503AA49
:10023000029800F09BFA10BC5DF814FB300000201F
:100240002DE9F0410F460546002028622846E9685E
:10025000884770B3252805D0D5E901219047286A41
:10026000401CF2E7E9682846002688476C280446C7
:100270000AD0682C08D04C2C35D06A2C31D0742C84
:1002800031D07A2C2FD016E0E968064628468847F8
:10029000B042044608D16C2E23D04FF48066284625
:1002A000E9688847044606E06C2E03D04FF4807658
:1002B00001E01EE04026E4B1A4F14100192802D873
:1002C000203446F400663A46214628462E60FFF761
:1002D00069FF60B1012808D0FF1D27F00707083724
:1002E000B4E78026DBE70026D9E73F1DAEE72046CE
:1002F000B2E7286ABDE8F0814FF0000200B513466E
:1003000094469646203922BFA0E80C50A0E80C5035
:10031000B1F12001BFF4F7AF090728BFA0E80C50E6
:1003200048BF0CC05DF804EB890028BF40F8042BDF
:1003300008BF704748BF20F8022B11F0804F18BF4C
:1003400000F8012B7047704770477047704770473F
:100350002DE9FF4F0C461E464FF0FF378BB0D2E918
:100360000001DDF860800A908A46C1F30A5505B99C
:100370003D46002108464FF00000BAF1000F00F49E
:10038000400005DA00EB80004FF4400101EA500024
:100390004FEA9059B9F1010F00DDB9460A9850EAC9
:1003A0004A000ED044F61050A5F2FF3545432F14F5
:1003B000B8F1000F1ED07542291E1EDDC9F10002E2
:1003C0001CE0B8F1010F4FF0000001D0302103E034
:1003D000F24305E02154401CB042FBDB30460022D2
:1003E000002121540B99C1F80880C1E900200FB009
:1003F000BDE8F08FBD1B6D1CDEE74A4600DA69429E
:1004000006A800F067FA06AB93E8070003AB83E8A1
:10041000070050460A9900F045FB8DE80700A0F55B
:1004200000501F3800900398002D0ADD42F21F0192
:100430004A460844002303A90390684600F0AEFD35
:1004400009E0A0F500504A461F38002303A9039095
:10045000684600F0B8FD8DE807000004000C03D0EA
:100460004FF0FF30410800E01046B8F1000F03D014
:100470000022009215461EE0751E05D400F08CF98E
:10048000303262556D1EF9D5B3460122084302D0C1
:1004900000227F1C04E02078302801D100227F1E3A
:1004A000002A099784D01DE0112D07DA00F074F9B5
:1004B000303262556D1C50EA0102F5D1084302D07A
:1004C0000098C8B10EE00021681E05E0235C625C64
:1004D00063542254401E491C8142F7DBAB46A81BE3
:1004E000401E0990002004F80B000B98099AC0F8F0
:1004F0000880C0E9002B7AE711264FF0000857E783
:100500002DE9F04F88460446D21D22F0070191B034
:10051000D1E90001CDE90A0103F044F802460B9845
:10052000C00F01D02D2007E02068810701D52B20C6
:1005300002E0202101EAC000032A099001D0072A25
:1005400005DB03464146204600F084F90BE12078A4
:10055000800601D5E06900E00620B8F1650F81460C
:1005600006D0B8F1660F18D0B8F1670F70D131E03E
:100570000020B9F1110F009001DB112301E009F116
:1005800001030AAA01A90CA8FFF7E2FEDDE90C703D
:10059000002609F10105834647E001204B46009003
:1005A0004FF000470AAA01A90CA8FFF7D1FEDDE928
:1005B0000DB00C995D46002610B909F101000D1827
:1005C000B9EB050003D4C0F1FF3609F10105A5EB35
:1005D00009002BE0B9F1010F01DA4FF00109002009
:1005E000B9F1110F0090484601DD112300E00346E8
:1005F0000AAA01A90CA8FFF7ABFEDDE90C704D4675
:1006000000268346207800070AD4AB4500DA5D4611
:1006100001A8012D04DD411911F8011C302907D072
:100620004F4502DA17F1040F04DA012082460FE089
:100630006D1EEEE7002F02DCED1B3E4403E0781C4C
:10064000A84200DD7D1CB81B00F1010A4FF00047F5
:100650002078000703D4AA4501DB4FF0FF3A0021C0
:10066000B7F1004F0DF143088DF8431024D002205C
:100670002B23002F01DA7F422D230A21021EA0F135
:10068000010000DC5FB197FBF1FC97FBF1F201FB8D
:100690001C7C17460CF1300C08F801CDEEE7A8F1F0
:1006A000010003702188090501D5452100E065217D
:1006B000A0F1010800F8011C09980FA9A1EB080797
:1006C000FF1D00B10120411901EBEA70A169384416
:1006D000081A401EA0612078C00602D42046AFF35D
:1006E0000080099828B1D4E901219047206A401C74
:1006F00020622078C00622D52046AFF300801EE09D
:10070000002E04DBB34502DD01A8805D00E030204F
:10071000D4E901219047206A401C2062761CAAF18E
:1007200001005FEA000A0AD100F032F8C0680168EF
:10073000405CD4E901219047206A401C2062281EB9
:10074000A5F10105DCDC07E0D4E9012118F8010B73
:100750009047206A401C2062381EA7F10107F3DC95
:100760002046AFF30080032011B041E6074B70B57F
:100770000D467B4400F05BF80446284600F01CF967
:1007800010B14FF0FF3070BD204670BDC331000086
:1007900000487047E401002030B5B0F10A024FEA8A
:1007A000900E71F100034EEA817EB0EB0E0061EB1A
:1007B00091014FEA101E4EEA017E10EB0E0041EB54
:1007C00011114FEA102E4EEA016E10EB0E0041EBB4
:1007D00011214FEA104E4EEA014E10EB0E0041EB94
:1007E0001141401841F100014FEAD00040EA417048
:1007F0004FEAD10110EB80054FEA810444EA90747E
:1008000044EB01046D1944EB0404521BA3414FF067
:10081000000348BF0A3200D530BD401C41F1000141
:1008200030BD000001694A1C02610878704700B5BC
:100830008FB0CDE901310021059105497944CDE919
:10084000031011466846FFF7FBFC0FB000BD000027
:10085000E5FFFFFF2DE9F0411F460446032601682E
:10086000072A01F4006004DB08B116A505E016A50F
:1008700003E008B115A500E015A521F010002060E7
:10088000A069C01EA0610FB1401EA0612046AFF359
:1008900000804FB1D4E9012138469047206A401CBE
:1008A0002062C01C206206E0206AFAE7D4E9012138
:1008B00015F8010B9047761EF8D22046AFF3008062
:1008C000BDE8F0814E414E006E616E00494E46001B
:1008D000696E66002DE9F047814616468AB03548B4
:1008E00078440DC88DE80D0032487844801C03AC74
:1008F0000DC884E80D0041F69B300844372190FB79
:10090000F1F290FBF1F5A5F1800501FB12041B3C0F
:1009100002D56442012000E00020DFF898A0804664
:100920000027FA44AAF1BE0A0EE0E0070AD03246D8
:10093000684607EB470101230AEB810100F043FB06
:100940008DE8070064107F1C002CEED1194F7F4406
:10095000AE3F19E0E80715D007EB04100DF1180AB7
:1009600090E80E008AE80E00C068F04201D19819A4
:1009700008903246012306A903A800F024FB03AB2C
:1009800083E807006D10641C002DE3D14FF00103D4
:1009900032466946B8F1000F03A802D000F0FEFA13
:1009A00001E000F010FBC9E90001C9F808200AB015
:1009B000BDE8F087F83D0000007B00F08000704744
:1009C00000487047C40100207546FFF7F9FFAE46A6
:1009D00005006946534620F00700854618B020B54B
:1009E000FFF70EFCBDE820404FF000064FF0000777
:1009F0004FF000084FF0000B21F00701AC46ACE8C7
:100A0000C009ACE8C009ACE8C009ACE8C0098D4633
:100A1000704710B50446AFF300802046BDE8104093
:100A2000FFF7DABB4FF0013C50F8042B51F8043BC0
:100A30009A4221D1A2EB0C03934313EACC1317D1B2
:100A400050F8042B51F8043B9A4215D1A2EB0C0349
:100A5000934313EACC130BD150F8042B51F8043B09
:100A60009A4209D1A2EB0C03934313EACC13DBD0D7
:100A70004FF00000704700BFD01A01BAB1FA81F1FF
:100A800001F0180122FA01F0CB40C1F12001DBB2E4
:100A9000C0B2C01A2CFA01F3D11A914311EAC31162
:100AA000E6D170475FEA400C08BF91F0000F4FEAB3
:100AB0008C234FEAC12243EA51514FEA1C5018BF20
:100AC00000F5F0404FEA300018BF41F000415FEA06
:100AD0006C5C00F02980BCF1FF3F08BF40F0804013
:100AE0007047130C06BF12044FF0100C4FF0000CAF
:100AF000130E04BF12020CF1080C130F04BF1201F5
:100B00000CF1040C930F04BF92000CF1020CD30FF4
:100B100004BF52000CF1010C11464FF00002A0F18D
:100B20001F00A0EB0C00704711F0004F08BF70478A
:100B300031F000413FF4D5AF0B0C06BF09044FF074
:100B4000100C4FF0000C0B0E04BF09020CF1080C46
:100B50000B0F04BF09010CF1040C8B0F04BF8900BB
:100B60000CF1020CCB0F04BF49000CF1010CCCF1CD
:100B70002003A0EB0C0022FA03F302FA0CF241EA84
:100B8000030100F10100704720F07F4C80EA030070
:100B900023F07F47ACEB070303F57C5300F00040E4
:100BA00003F1FF032DE980494FEA154B09B44FEAE1
:100BB000144325EA0B4E24EA03480FF2042606EB01
:100BC000132749083E785FEA320203FB0667C7F540
:100BD000000707FB06F64FEA54374FEAD64606F100
:100BE000020607FB066CCCF1005C4FEA1C472CEABE
:100BF000074C07FB06F40CFB06F504EB15464FEA21
:100C0000961634BF00204FF000404FEAD13706FB64
:100C100007FC4FEA1C4C0CFB0BF7D21B03FB0CF739
:100C200061EB07010CFB0EF7B0EB074072EB1742CC
:100C30000CFB08F734BFA2EB0742B2EB074261EBB3
:100C400017414FEA0C444FEA910706FB07FC4FEAB5
:100C50001C4C0CFB0BF7B0EBC74072EB573203FB9D
:100C60000CF734BFA2EBC742B2EBC74261EB57317E
:100C70000CFB0EF7B0EBC70072EB57720CFB08F7DA
:100C800034BFA2EBC702B2EBC70261EB5771039FFF
:100C90004FEA816141EA921104EBCC044FEAD1376B
:100CA0004FEA826206FB07FC42EA90124FEA80603C
:100CB0004FEA1C4C0CFB0BF7D21B03FB0CF761EB50
:100CC00007010CFB0EF7B0EB074072EB17420CFB71
:100CD00008F734BFA2EB0742B2EB074261EB1741C2
:100CE0004FEA8C554FEA910704EB9C2406FB07FC66
:100CF0004FEA1C4C0CFB0BF7B0EBC74072EB5732C2
:100D000003FB0CF734BFA2EBC742B2EBC74261EB67
:100D100057310CFB0EF7B0EBC70072EB57720CFBB0
:100D200008F734BFA2EBC702B2EBC70261EB577101
:100D300015EB4C254FEA816141EA92114FEA82623C
:100D40004FEAD13742EA901206FB07FC44F1000457
:100D50004FEA80604FEA1C4C0CFB0BF7D21B03FBE5
:100D60000CF761EB07010CFB0EF7B0EB074072EBE1
:100D700017420CFB08F734BFA2EB0742B2EB074265
:100D800061EB174115EB1C154FEA813141EA9241A5
:100D90004FEA823242EA90424FEA80304FEA0C76C4
:100DA00044F1000448EA03434EEA0B484FF0000EBA
:100DB000B2EB080C71EB030724BF624639464EEBD9
:100DC0000E0E4FF0000B0018524149414BEB0B0B3C
:100DD000B2EB080C71EB03077BF1000B24BF6246FA
:100DE00039464EEB0E0E4FF0000B001852414941B0
:100DF0004BEB0B0BB2EB080C71EB03077BF1000B19
:100E000024BF624639464EEB0E0E51EA020718BF68
:100E100046F0010616EB0E7655F1000254F1000182
:100E200003D5BDE88901BDE80088BDE88901BDE8BA
:100E30000048B619524141EB0101A3F1010370478B
:100E400080807F7E7D7C7B7A797877767675747307
:100E5000727171706F6E6E6D6C6C6B6A6A696868C6
:100E6000676666656464636362616160605F5F5E5C
:100E70005E5D5D5C5C5B5B5A5A59595858575756D2
:100E80005655555554545353525252515150505037
:100E90004F4F4F4E4E4D4D4D4C4C4C4B4B4B4A4A89
:100EA0004A494949484848474747474646464545CD
:100EB0004544444444434343434242424241414106
:100EC000002B9C4630D477002BD01CB54FEA370757
:100ED00003B44FF010004FF01001BAF1000F06D02C
:100EE000BCF1000FDCBF40F0080040F008014FF0FB
:100EF00000000FBCBDE810400BF1010BBBF1010F6E
:100F000008BF5FEA170722BF12F1010211F10101C8
:100F10004FF0004143F1000300F0004043EA0000BD
:100F20007047F9D35708D0E746EA064613F1400F59
:100F30004FEA16461FDD13F1200FDFBF16430A46A6
:100F4000002120335B42BED0C3F1200746EA0646AB
:100F500002FA07F74FEA164646EA0706C3F12007EA
:100F600022FA03F201FA07F721FA03F14FF0000326
:100F700042EA0702A7E746EA020646EA06464FEAC1
:100F8000164646EA0106BCBF46EA0646360C4FF056
:100F900000034FF000024FF0000194E72DE9804C70
:100FA0009A46934670B491E8380007C831EA400C7D
:100FB00048BF34EA430C03D5FFF7E6FDFFF780FF97
:100FC000F0BCBDE8008C2DE9804C9A46934670B485
:100FD00091E8380007C810F0804F08BF13F0804F29
:100FE00003D100F005F8FFF76BFFF0BCBDE8008C03
:100FF00020F07F4780EA030023F07F4C07EB0C03CF
:10100000A3F57C5300F00040A3F1FE0392F0000F23
:1010100000F0B38095F0000F00F077802DE90149D2
:101020004FEA11404FEA144621EA004800FB06FC53
:1010300024EA064708FB06F607FB08F800FB07F75B
:1010400018EB06484CEB164C4FEA124B18EB0748CE
:101050004FEA15464CEB174022EA0B4E0BFB06FC01
:1010600025EA06470EFB06F607FB0EFE0BFB07F70D
:101070001EEB064E4CEB164C4FF000061EEB074ED7
:101080004CEB174B18EB0B0840F1000018EB0E0B64
:1010900058EB000840F100008F1A4FF000013CBFF0
:1010A000C943661B14BFB5EB040C00213CBFC94308
:1010B000F61B4FEA17444EEA8E0E27EA04454FEA24
:1010C0001C4704FB07622CEA074C05FB07F70CFBE7
:1010D00005F604FB0CFC16EB074642EB174216EB39
:1010E0000C4642EB1C421BEB060658EB0202414148
:1010F00046EA9E0601D5BDE80189B619524141EB89
:101100000101A3F10103BDE801894FEA14454FEA4B
:10111000114724EA054621EA074C05FB07F406FBC4
:1011200007F70CFB06F105FB0CFC11EB074144EB48
:1011300017444FEA124711EB0C4144EB1C4422EADE
:10114000074C05FB07F206FB07F70CFB06F605FB51
:101150000CFC16EB074642EB174216EB0C4642EB33
:101160001C456A1854F1000148BF7047B619524136
:1011700041EB0101A3F10103704795F0000F37D057
:101180004FEA11424FEA144721EA024624EA074C8B
:1011900002FB07F106FB07F70CFB06F402FB0CFC55
:1011A00014EB074441EB17414FEA154714EB0C448D
:1011B00041EB1C4125EA074C02FB07F506FB07F74C
:1011C0000CFB06F602FB0CFC16EB074645EB17453D
:1011D00016EB0C4645EB1C42121951F1000148BFB9
:1011E0007047B619524141EB0101A3F10103704769
:1011F0004FEA14454FEA114724EA054621EA074C15
:1012000005FB07F106FB07F70CFB06F24FF00006A3
:1012100005FB0CFC12EB074241EB174112EB0C42B1
:1012200051EB1C4148BF7047921841EB0101A3F1FB
:101230000103704770B5044600252068806800F0FF
:101240000100F0B12068806820F00100216888600A
:1012500000F030FF05460EE000F02CFF401B022896
:1012600009D9A06A40F01000A062E06A40F00100D5
:10127000E062012070BD2068806800F00100002855
:10128000EAD10020F6E7000038B50446002500202A
:1012900000902068806800F0010080BB20688068B2
:1012A00040F0010021688860164800681649B0FBCC
:1012B000F1F0009002E00098401E00900098002895
:1012C000F9D100F0F7FE054613E000F0F3FE401BF5
:1012D00002280ED9A06A40F01000A062E06A40F037
:1012E0000100E06200BF002084F8240000BF01205C
:1012F00038BD2068806800F001000028E5D000209B
:10130000F6E700000000002040420F0000BFFEE7AB
:101310007047000010B5012000F010FD01200149C8
:10132000086010BD1404014010B5042000F006FD53
:1013300004200149086010BD1404014010B51020BC
:1013400000F0FCFC10200149086010BD14040140AD
:10135000F8B5044600260020009000BF94F8240051
:10136000012801D10220F8BD012084F8240000BF2B
:101370002046FFF75FFF0646002E62D1A06A20F4E8
:10138000885040F00200A062022000F043FF304984
:101390000968B1FBF0F04000009002E00098401EA8
:1013A000009000980028F9D12046FFF76DFF2068D3
:1013B000806840F008002168886000F07BFE0546E8
:1013C00011E000F077FE401B0A280CD9A06A20F03B
:1013D000020040F01000A06200BF002084F824004A
:1013E00000BF0120BFE72068806800F008000028E7
:1013F000E7D12068806840F004002168886000F030
:1014000059FE054611E000F055FE401B0A280CD994
:10141000A06A20F0020040F01000A06200BF00208F
:1014200084F8240000BF01209DE72068806800F058
:1014300004000028E7D1A06A20F0020040F001007B
:10144000A06200BF002084F8240000BF30468AE775
:101450000000002038B5024600230020009000BFA5
:1014600092F82400012801D1022038BD012082F821
:10147000240000BF4868072812D21068406B0C791E
:10148000641E04EB84051F24AC40A0430D796D1E3F
:1014900005EB85050C68AC4020431468606327E0C9
:1014A00048680D2812D21068006B0C79E41F04EB19
:1014B00084051F24AC40A0430D79ED1F05EB850585
:1014C0000C68AC4020431468206311E01068C06AC7
:1014D0000C790D3C04EB84051F24AC40A0430D792E
:1014E0000D3D05EB85050C68AC4020431468E062B7
:1014F00008680A2812D31068C0680C780A3C04EB0C
:1015000044050724AC40A0430D780A3D05EB450592
:101510008C68AC4020431468E0600FE010680069FC
:101520000C7804EB44050724AC40A0430D7805EB90
:1015300045058C68AC402043146820610868102879
:1015400002D00868112827D1174C1068A0421ED17C
:101550001068806800F40000F0B91068806840F4FA
:1015600000001468A0600868102815D10F480068B2
:101570000F4CB0FBF4F000EB80004000009002E064
:101580000098401E009000980028F9D104E0906A6D
:1015900040F020009062012300BF002082F8240068
:1015A00000BF184661E70000002401400000002051
:1015B00040420F0001460868C06C70472DE9F041B9
:1015C0000446002700250026A84614B90120BDE8DE
:1015D000F081A06810B1207D00B100BFA06A30B9D1
:1015E0000020E06284F82400204600F097F82046AE
:1015F000FFF720FE0746A06A00F01000002873D114
:10160000002F7ED1A06A20F4885040F00200A06232
:101610003F4AD4E90001904208D1E069B0F5402F7B
:1016200002D14FF4002002E0E06900E0E0690143EC
:10163000207B41EA40000643A068B0F5807F02D0DD
:10164000A068012802D14FF4807000E0002005431B
:10165000207D012811D1207B38B9A069401E4FF4AC
:10166000006141EA4030054307E0A06A40F02000F5
:10167000A062E06A40F00100E0622068406820F467
:1016800069402843216848602068806821490840F3
:10169000304321688860A068B0F5807F02D0A068E0
:1016A000012802D14FF4807000E00020B0F5807F67
:1016B00003D1208A401E4FEA00582068C06A20F4F7
:1016C000700040EA08002168C862206880681249FA
:1016D0000840B04209D10020E062A06A20F0020078
:1016E00040F00100A06211E00BE0A06A20F00200CF
:1016F00040F01000A062E06A40F00100E0620127C3
:1017000004E0A06A40F01000A062012738465EE7BE
:10171000003C0140FDF7E1FFFE0E1FFF10B58CB04D
:1017200004461D492068884233D1182102A8FEF7DB
:10173000E3FD00BF00BF1948806940F400701749FD
:1017400088610846806900F40070019000BF00BF06
:1017500000BF00BF00BF0846806940F010008861EC
:101760000846806900F01000019000BF00BF00BF74
:101770004FF4004004900220029002A800F0E4FD23
:10178000022008900320099008A9054800F0E4FA17
:1017900000BF0CB010BD000000240140001002404A
:1017A00000100140F8B504460D46002600200090C8
:1017B000002700F07FFC06462068806800F48070F7
:1017C00050B1A06A40F02000A06200BF002084F861
:1017D000240000BF0120F8BD2068406800F480703C
:1017E000F8B92068C06A00F47000D0B912E0681C33
:1017F00080B125B100F05EFC801BA8420AD9A06A26
:1018000040F00400A06200BF002084F8240000BF64
:101810000320E0E72068006800F002000028E6D01E
:1018200050E0022000F0F6FC36490968B1FBF0F008
:1018300021680969344A114091B92168C968921137
:10184000114069B921680969304A114031B92168EC
:10185000C9689211114009B9142117E0292115E036
:1018600021680969294A114021B92168C968921182
:10187000114041B121680969254A114029B92168FF
:10188000C968114009B9542100E0FC2100FB01F7AF
:1018900015E0681C80B125B100F00CFC801BA8424B
:1018A0000AD9A06A40F00400A06200BF002084F8BA
:1018B000240000BF03208EE70098401C0090009891
:1018C000B842E6D36FF0120021680860A06A40F4C5
:1018D0000070A0622068806800F46020B0F5602F7E
:1018E0000DD1207B58B9A06A20F48070A062A06A54
:1018F00000F4805018B9A06A40F00100A0620020F6
:1019000069E7000000000020244992249224491233
:101910004992240070B50446002500BF94F82400C5
:10192000012801D1022070BD012084F8240000BFED
:101930002046FFF7A9FC0546002D77D1A06A40F2AA
:101940000121884340F48070A0623C4920688842AD
:1019500008D13B48006800F4702008B9012002E07B
:10196000002000E0012078B1A06A20F48010A0627D
:101970002068406800F4806000B3A06A20F4005042
:1019800040F48050A06219E0A06A40F48010A06288
:101990002B49091F2068884203D0284920688842C3
:1019A00004D12748006800F4806000E0002028B1DE
:1019B000A06A20F4005040F48050A062A06A00F4B5
:1019C000805020B1E06A20F00600E06201E00020D3
:1019D000E06200BF002084F8240000BFC01E216820
:1019E00008602068806800F46020B0F5602F16D190
:1019F00012492068884208D11148006800F470201C
:101A000008B9012002E0002000E0012038B1206880
:101A1000806840F4A000216888600CE006E020683F
:101A2000806840F480102168886004E000BF0020D6
:101A300084F8240000BF284675E700000028014014
:101A40000424014070B50446002594F821000228C2
:101A500003D00420A0630125C1E02068006820F0C5
:101A60000E00216808602068006820F001002168ED
:101A700008605C492068884252D95A497839206800
:101A8000884201D1012047E05649643920688842E4
:101A900001D1102040E0534950392068884201D1DB
:101AA000801539E04F493C392068884201D18014C3
:101AB00032E04C4928392068884202D14FF4803006
:101AC0002AE0484914392068884202D14FF4801036
:101AD00022E044492068884201D140041CE0424988
:101AE0002068884201D1012016E03F491431206866
:101AF000884201D110200FE03B49283120688842FC
:101B000001D1801508E038493C312068884201D174
:101B1000801401E04FF480303349091F086051E020
:101B2000304978392068884201D1012047E02D49A9
:101B300064392068884201D1102040E02949503999
:101B40002068884201D1801539E026493C39206857
:101B5000884201D1801432E0224928392068884225
:101B600002D14FF480302AE01E491439206888429F
:101B700002D14FF4801022E01A492068884201D136
:101B800040041CE018492068884201D1012016E079
:101B9000154914312068884201D110200FE0124904
:101BA00028312068884201D1801508E00E493C3177
:101BB0002068884201D1801401E04FF48030094947
:101BC00080394860012084F8210000BF002084F89B
:101BD000200000BF606B10B12046616B884728462B
:101BE00070BD0000800002400804024010B50446A9
:101BF000142001F0F7FD012C53D0042C02D0102C3E
:101C00006ED11FE00421374800F046FA012818D1B0
:101C100000BF00222021334800F046FA00BF3248BE
:101C2000D0E90010314AC2E9001010460CC830A0BB
:101C3000FEF7FAFA00212D4A11605160642001F08C
:101C4000D1FD4DE01021274800F026FA012827D1C8
:101C500000BF002220212A4800F026FA00BF2248B7
:101C6000D0E90010214AC2E9001010460CC825A096
:101C7000FEF7DAFA00211D4A1160516000BF01220F
:101C800011021F4800F010FA00BF642001F0AAFD05
:101C900000BF00224FF48071194800F005FA00BF20
:101CA0001EE001211B4800F0F7F9012817D11AA006
:101CB000FEF7BAFA00BF012220210A4800F0F4F929
:101CC00000BF00BF012220210D4800F0EDF900BF48
:101CD0000021064A1160516000201749086000BFCA
:101CE00000BF10BD001801401000002018000020A7
:101CF00072696768743A256C66210D0A000000005D
:101D0000000C014077726F6E673A256C66210D0AF0
:101D10000000000000080140737461727420746850
:101D2000652074657374212054696D652052657354
:101D300065740D0A000000000800002010B504467C
:101D400004480068204020B1024804602046FFF7A4
:101D50004DFF10BD140401402DE9F8470246002351
:101D60009C467BE14FF0010808FA03F4D1F80080AB
:101D700008EA0400A0427DD1DFF8F4A2D1F8048083
:101D8000A8EB0A09D0453AD014DCB8F1030F50D0C3
:101D900009DCB8F1000F31D0B8F1010F1CD0B8F157
:101DA000020F49D120E0B8F1110F18D0B8F1120F8D
:101DB00042D11EE0B9F5881F25D006DCB9F5803F79
:101DC00020D0B9F5801F37D11AE0B9F5001F18D01F
:101DD000B9F5041F30D117E0D1F80CC02DE0D1F8CF
:101DE0000C8008F1040C28E0D1F80C8008F1080CF4
:101DF00023E0D1F80C8008F10C0C1EE000BF00BFFE
:101E000000BF00BF00BF00BFD1F80880B8F1000FCD
:101E100002D14FF0040C0BE0D1F80880B8F1010FAB
:101E200003D14FF0080C146102E04FF0080C54612C
:101E300003E04FF0000C00E000BF00BFFF2801D816
:101E4000904601E002F104084646FF2802D84FEA16
:101E5000830803E0A3F108084FEA88084746D6F84C
:101E600000804FF00F0909FA07F928EA09080CFA6F
:101E700007F900E07AE048EA0908C6F80080D1F8DE
:101E8000048008F08058B8F1805F6FD100BFDFF8A0
:101E9000E481D8F8188048F00108DFF8D891C9F833
:101EA0001880C846D8F8188008F00108CDF80080DE
:101EB00000BF00BF4FEAB9384FEA930958F82950DC
:101EC0004FEA83784FEA18794FF00F0808FA09F8BB
:101ED00025EA0805DFF8A081424502D14FF000084D
:101EE00024E0DFF89881424502D14FF001081DE05F
:101EF000DFF88C81424502D14FF0020816E0DFF88E
:101F00008481424502D14FF003080FE0DFF8788169
:101F1000424502D14FF0040808E0DFF870814245E5
:101F200002D14FF0050801E04FF006084FEA83792F
:101F30004FEA197908FA09F848EA0505DFF85081EF
:101F40004FEA930948F82950D1F8048008F4803802
:101F5000B8F5803F0BD1DFF83C81D8F8008048EA23
:101F60000008DFF83091C9F800800AE075E0DFF87A
:101F70002481D8F8008028EA0008DFF81891C9F811
:101F80000080D1F8048008F40038B8F5003F0ED185
:101F9000DFF8008108F10408D8F8008048EA00085A
:101FA000DFF8F09009F10409C9F800800DE0DFF8CE
:101FB000E48008F10408D8F8008028EA0008DFF877
:101FC000D49009F10409C9F80080D1F8048008F41C
:101FD0008018B8F5801F0ED1DFF8B88008F1080826
:101FE000D8F8008048EA0008DFF8A89009F108094D
:101FF000C9F800800DE0DFF89C8008F10808D8F8E7
:10200000008028EA0008DFF88C9009F10809C9F877
:102010000080D1F8048008F40018B8F5001F0ED134
:10202000DFF8708008F10C08D8F8008048EA000852
:10203000DFF8609009F10C09C9F800800DE0DFF8C5
:10204000548008F10C08D8F8008028EA0008DFF86E
:10205000449009F10C09C9F800805B1CD1F800809C
:1020600028FA03F8B8F1000F7FF47CAEBDE8F887DA
:10207000000011100010024000080140000C014057
:10208000001001400014014000180140001C0140F4
:102090000800014000040140024693680B400BB168
:1020A000012000E0002070470AB1016101E00B044B
:1020B0000361704701480068704700003800002045
:1020C00003480068034909780844014908607047DB
:1020D000380000204000002010B50848006840F09B
:1020E000100006490860032000F080F80F2000F07F
:1020F00007F800F02BF8002010BD0000002002407F
:1021000070B504460E4800784FF47A71B1FBF0F0D8
:102110000C490968B1FBF0F5284600F029FD08B12B
:10212000012070BD102C07D200222146501E00F065
:102130001EF80548046001E00120F2E70020F0E706
:1021400040000020000000203C00002070470146B5
:102150000846002809DB00F01F0301229A404309CA
:102160009B0003F1E023C3F8002100BF70472DE975
:10217000F05F80460D461646002701F027FA074615
:1021800039462A46334601F00700C0F1070ABAF182
:10219000040F02D94FF0040A01E0C0F1070AD1464A
:1021A00000F1040ABAF1070F02D24FF0000A01E071
:1021B000A0F1030AD4464FF0010A0AFA09FAAAF17B
:1021C000010A0AEA020A0AFA0CFA4FF0010B0BFAAA
:1021D0000CFBABF1010B0BEA030B4AEA0B042146A3
:1021E000404601F0FBF9BDE8F09F000000BF00F0A1
:1021F0000702064B19684FF6FF031940044B0B43C7
:1022000043EA0221014B196000BF70470CED00E06A
:102210000000FA052DE9F04385B0064642A30FCB36
:1022200001AC0FC444A0006800904FF000080025E6
:1022300000270024A146042E36D004DC012E3BD01A
:10224000022E6BD15FE0082E32D0102E66D13B48B3
:102250004468006800F0807000B301A8C4F38341B3
:10226000475C04F4803070B134484068C0F34040AB
:102270001DF8008004F4803040B13148B0FBF8F024
:1022800000FB07F502E02F4807FB00F52B484068EC
:1022900000F48000B0F5800F01D1A94603E068008A
:1022A0000321B0FBF1F93AE000F0D2F9814636E0C3
:1022B00000F0CEF9814632E02048046A04F4407010
:1022C000B0F5807F05D104F0020010B14FF4004951
:1022D00018E004F44070B0F5007F07D11748406A59
:1022E00000F0020010B149F640490BE004F44070E0
:1022F000B0F5407F06D11148006800F4003008B105
:102300004FF224490BE000F093F90C494968C1F3FE
:102310008131491C4900B0FBF1F900E000BF00BF6A
:10232000484605B0BDE8F083020304050607080926
:102330000A0B0C0D0E0F10100102000000100240DD
:1023400000127A0000093D00F8B504460026002579
:10235000207800F0010000286BD000274348C069B6
:1023600000F0805070B900BF4048C06940F0805014
:102370003E49C8610846C06900F08050009000BF27
:1023800000BF01273A48006800F48070B0B93848AF
:10239000006840F4807036490860FFF78BFE0646FF
:1023A00006E0FFF787FE801B642801D90320F8BDF3
:1023B0002F48006800F480700028F2D02B48006A93
:1023C00000F440752DB3A08800F44070A84220D0DE
:1023D0002648006A20F44075012026490860002044
:1023E00008602248056205F0010090B1FFF762FE27
:1023F000064608E0FFF75EFE801B41F28831884206
:1024000001D90320D3E71948006A00F00200002830
:10241000F0D01648006A20F4407061680843134900
:102420000862012F04D10846C06920F08050C861BD
:1024300000BF207800F00200022807D10B48406856
:1024400020F44040A168084308494860207800F023
:102450001000102807D10548406820F48000616909
:102460000843024948600020A1E700000010024034
:10247000007000404004424270B504460D460CB95D
:10248000012070BD5A48006800F00700A8420ED233
:102490005748006820F0070028435549086008465F
:1024A000006800F00700A84201D00120E9E7207889
:1024B00000F0020002281DD1207800F0040004285A
:1024C00005D14C48406840F4E0604A4948602078B3
:1024D00000F00800082805D14648406840F46050E4
:1024E000444948604348406820F0F000A168084330
:1024F00040494860207800F0010078B36068012806
:1025000006D13C48006800F4003090B90120B8E7DB
:102510006068022806D13748006800F0007040B9B2
:102520000120AEE73348006800F0020008B901203E
:10253000A7E73048406820F00300616808432D4950
:102540004860FFF7B7FD064609E0FFF7B3FD801BC3
:1025500041F28831884202D9032092E707E02548FA
:10256000406800F00C006168B0EB810FEDD12048AD
:10257000006800F00700A8420ED91D48006820F04E
:10258000070028431A4908600846006800F0070061
:10259000A84201D0012074E7207800F0040004284C
:1025A00007D11448406820F4E060E168084311490D
:1025B0004860207800F00800082808D10D484068DD
:1025C00020F46050216940EAC1000A49486000F0E7
:1025D0003FF808494968C1F30311074A515CC840F4
:1025E0000649086006480068FFF78AFD002048E7B2
:1025F0000020024000100240464600080000002073
:102600003C000020014800687047000000000020E6
:1026100000B5FFF7F7FF04494968C1F30221034AF7
:10262000515CC84000BD0000001002405646000842
:1026300000B5FFF7E7FF04494968C1F3C221034A27
:10264000515CC84000BD0000001002405646000822
:10265000F0B585B00FF26C0C9CE8E01001A8A0E882
:10266000E0101CA52D680095002100220023002405
:102670000020194D696801F00C05F5B1042D02D058
:10268000082D19D101E0154819E001ADC1F38346C9
:10269000AC5D01F4803555B10F4D6D68C5F3404513
:1026A0001DF805200D4D6543B5FBF2F302E00C4D1E
:1026B00004FB05F3184602E000BF084800BF00BF56
:1026C00005B0F0BD02030405060708090A0B0C0D4E
:1026D0000E0F1010010200000010024000127A00DC
:1026E00000093D00F8B504460CB90120F8BD20787A
:1026F00000F00100002878D0F848406800F00C0095
:1027000004280CD0F548406800F00C00082811D1CE
:10271000F248406800F48030B0F5803F0AD1EF48BD
:10272000006800F4003000285FD0606800285CD1A9
:102730000120DBE700BF6068B0F5803F06D1E748C5
:10274000006840F48030E549086028E0606858B9C6
:10275000E248006820F48030E049086008460068DC
:1027600020F4802008601AE06068B0F5A02F0BD13B
:10277000DA48006840F48020D849086008460068BC
:1027800040F4803008600AE0D448006820F48030CB
:10279000D24908600846006820F48020086000BF25
:1027A000606888B1FFF786FC054606E0FFF782FC0B
:1027B000401B642801D9032098E7C848006800F44A
:1027C00000300028F2D010E0FFF774FC054606E068
:1027D000FFF770FC401B642801D9032086E7BF483F
:1027E000006800F400300028F2D1207800F00200E8
:1027F000022857D1B948406800F00C0050B1B748E2
:10280000406800F00C00082818D1B448406800F473
:10281000803098B9B148006800F0020020B120690A
:10282000012801D0012061E7AC48006820F0F800E1
:10283000616940EAC100A949086033E02069E8B154
:102840000120A7490860FFF735FC054606E0FFF7C1
:1028500031FC401B022801D9032047E79F4800684C
:1028600000F002000028F2D09C48006820F0F80038
:10287000616940EAC1009949086013E00020984965
:102880000860FFF717FC054606E0FFF713FC401B46
:10289000022801D9032029E79048006800F00200CF
:1028A0000028F2D1207800F0080008282DD1A06976
:1028B000B8B101208B490860FFF7FCFB054606E034
:1028C000FFF7F8FB401B022801D903200EE78348DD
:1028D000406A00F002000028F2D0012000F0B6FCAF
:1028E00013E000207F490860FFF7E4FB054606E09F
:1028F000FFF7E0FB401B022801D90320F6E67748EA
:10290000406A00F002000028F2D1207800F00400B4
:10291000042873D100277148C06900F0805070B955
:1029200000BF6E48C06940F080506C49C8610846DD
:10293000C06900F08050009000BF00BF01276A48C6
:10294000006800F48070B0B96748006840F4807097
:1029500065490860FFF7AEFB054606E0FFF7AAFBF6
:10296000401B642801D90320C0E65F48006800F4DA
:1029700080700028F2D000BFE068012806D15748D7
:10298000006A40F001005549086227E0E06858B944
:102990005248006A20F00100504908620846006A67
:1029A00020F00400086219E0E06805280BD14B48CC
:1029B000006A40F00400494908620846006A40F095
:1029C000010008620AE04548006A20F0010043491E
:1029D00008620846006A20F00400086200BFE06850
:1029E000A0B1FFF767FB054609E0FFF763FB401B5B
:1029F00041F28831884202D9032077E622E0374845
:102A0000006A00F002000028EFD012E0FFF752FB4E
:102A1000054608E0FFF74EFB401B41F28831884233
:102A200001D9032062E62D48006A00F00200002868
:102A3000F0D1012F05D12948C06920F080502749E5
:102A4000C86100BFE069C8B32448406800F00C00CA
:102A5000082860D0E069022848D100202049086693
:102A6000FFF728FB054606E0FFF724FB401B022882
:102A700001D903203AE61948006800F000700028E8
:102A8000F2D1206AB0F5803F07D11448406820F4A5
:102A90000030A168084311494860D4E9080108439F
:102AA0000E49496821F4741108430C49486001201B
:102AB0000B490866FFF7FEFA054607E03DE0FFF721
:102AC000F9FA401B022801D903200FE603480068E9
:102AD00000F000700028F2D02FE00000001002404B
:102AE000000042428004424200700040002014492D
:102AF0000866FFF7DFFA054606E0FFF7DBFA401B42
:102B0000022801D90320F1E50E48006800F00070AA
:102B10000028F2D111E0E069012800D1E6E509487A
:102B2000466806F48031206A814204D106F47011AF
:102B3000606A814201D00120D8E50020D6E500007E
:102B40000000424200100240042808D14FF0E0216A
:102B5000096941F004014FF0E022116107E04FF0F4
:102B6000E021096921F004014FF0E0221161704772
:102B700070B504462546681EB0F1807F01D3012060
:102B80000FE0681E4FF0E02148610F214FF0FF3049
:102B900000F024FD00204FF0E0218861072008614B
:102BA000002070BD7047704710B504460CB9012075
:102BB00010BD94F83D0028B9002084F83C00204660
:102BC00000F026F8022084F83D00211D206800F066
:102BD0005FFB012084F8460000BF84F83E0001211D
:102BE0003F200155402001554120015500BF00BF45
:102BF000012084F84200432001554420015545201E
:102C0000015500BF012084F83D000020D0E70000FE
:102C100038B504460E492068884217D100BF00BF6E
:102C20000C48C06940F010000A49C8610846C069F4
:102C300000F01000009000BF00BF00BF0322012180
:102C40003620FFF794FA3620FFF781FA38BD0000EE
:102C50000010004000100240014691F83D0001289C
:102C600001D001207047022081F83D000868C0684B
:102C700040F001000B68D860164B0868984213D0EA
:102C8000154B086898420FD00868B0F1804F0BD000
:102C9000124B0868984207D0114B0868984203D03D
:102CA000104B086898420CD10868806800F0070251
:102CB000062A0CD00868006840F001000B68186014
:102CC00005E00868006840F001000B68186000200B
:102CD000C8E70000002C014000340140000400401F
:102CE00000080040000C0040704710B50446206802
:102CF0000069C0F34000D8B12068C068C0F340004C
:102D0000B0B16FF0020021680861012020772068CF
:102D1000806900F0030018B12046FFF7E5FF05E0E9
:102D2000204600F0ADF8204600F0ABF800202077F8
:102D300020680069C0F38000D8B12068C068C0F383
:102D40008000B0B16FF00400216808610220207794
:102D50002068806900F4407018B12046FFF7C4FF76
:102D600005E0204600F08CF8204600F08AF80020AC
:102D7000207720680069C0F3C000D8B12068C0681F
:102D8000C0F3C000B0B16FF00800216808610420F2
:102D900020772068C06900F0030018B12046FFF7D3
:102DA000A3FF05E0204600F06BF8204600F069F82C
:102DB0000020207720680069C0F30010D8B1206897
:102DC000C068C0F30010B0B16FF010002168086156
:102DD000082020772068C06900F4407018B12046B0
:102DE000FFF782FF05E0204600F04AF8204600F099
:102DF00048F8002020772068006900F0010058B1F1
:102E00002068C06800F0010030B16FF00100216857
:102E10000861204600F036F820680069C0F3C01051
:102E200058B12068C068C0F3C01030B16FF08000A6
:102E3000216808612046FFF7B5FE20680069C0F3ED
:102E4000801058B12068C068C0F3801030B16FF0B6
:102E5000400021680861204600F034F820680069CD
:102E6000C0F3401058B12068C068C0F3401030B1C2
:102E70006FF02000216808612046FFF794FE10BD26
:102E80007047704770B504460A49206888420FD1E0
:102E900009480068401C084908600846006801F0BD
:102EA00039F805460022054B00F0DCFE044A03C257
:102EB00070BD000000100040080000200000244009
:102EC00010000020704770472DE9F0470446206845
:102ED00005682068C668206847694FF00008C14649
:102EE00005F00F08B8F1000F0AD105F0200038B145
:102EF00006F0200020B1204600F042FABDE8F0873D
:102F0000B8F1000F71D007F0010018B906F4907005
:102F100000286AD005F0010030B106F4807018B1C5
:102F2000E06B40F00100E06305F0040030B107F011
:102F3000010018B1E06B40F00200E06305F0020010
:102F400030B107F0010018B1E06B40F00400E0631D
:102F500005F0080048B106F0200010B907F00100A4
:102F600018B1E06B40F00800E063E06B68B305F077
:102F7000200028B106F0200010B1204600F000FA31
:102F800020684069C0F38019E06B00F0080010B9B8
:102F9000B9F1000F22D0204600F0D2F92068406934
:102FA00000F04000B0B12068406920F04000216886
:102FB0004861606B50B11848616B4863606BFEF705
:102FC00041FD10B1606B416B88470CE02046FFF774
:102FD0007AFF08E02046FFF776FF04E02046FFF77F
:102FE00072FF0020E06389E7FFE705F0800030B161
:102FF00006F0800018B1204600F090FA7EE705F058
:10300000400030B106F0400018B1204600F0A8F9A9
:1030100074E700BF72E700002D33000810B50446C6
:103020000CB9012010BDA06900B100E000BF94F808
:10303000390028B9002084F83800204600F028F82C
:10304000242084F839002068C06820F400502168EA
:10305000C860204600F0E4F92068006920F4904040
:10306000216808612068406920F02A0021684861D1
:103070002068C06840F400502168C8600020E06308
:10308000202084F8390084F83A000020CAE70000C4
:1030900010B586B004462849206888424AD100BF4E
:1030A00000BF2648806940F0040024498861084632
:1030B000806900F00400019000BF00BF00BF00BFA6
:1030C00000BF0846806940F00400886108468069B6
:1030D00000F00400019000BF00BF00BF00BF00BFB0
:1030E0000846806940F4804088610846806900F4A1
:1030F0008040019000BF00BF00BF48150290022031
:103100000390012004900320059002A90C48FEF7CB
:1031100023FE4FF4806002900020039002A908482B
:10312000FEF71AFE2520FFF712F80322114625208C
:10313000FFF71DF806B010BD003801400010024036
:103140000008014010B5034693F83A0020282FD11B
:1031500001B10AB9012010BD00BF93F83800012861
:1031600001D10220F7E7012083F8380000BF9962FF
:103170009A85DA850020D863222083F83A0000BFC0
:10318000002083F8380000BF1868C06840F48070E1
:103190001C68E0601868406940F001001C686061CC
:1031A0001868C06840F020001C68E0600020D2E78A
:1031B0000220D0E71D4A0168914236D11C49098896
:1031C00001F4004189BB1A49098801F4804171B1B9
:1031D000184909780A2903D00021154A118024E0F2
:1031E0001349098841F40041114A11801DE0114939
:1031F00009780D2906D10E49098841F480410C4A0D
:10320000118012E00B490978094A1288C2F30D02B5
:10321000094B995406490988491C054A11801146F1
:103220000988C72901DD002111807047003801405D
:10323000340000203600002044000020704700BF0A
:10324000FEE700BFFEE770477047000008B5084979
:103250000968C9084FF47A72B1FBF2F14143009159
:1032600000BF00BF00994A1E00920029F9D108BD95
:1032700000000020704710B5FEF722FF10BD704718
:1032800010B50248FFF731FD10BD00004C010020D1
:1032900010B50268204B98420ED0204B98420BD0BC
:1032A000B0F1804F08D01E4B984205D01D4B98427C
:1032B00002D01D4B984203D122F070024B681A4392
:1032C000154B98420ED0154B98420BD0B0F1804F61
:1032D00008D0134B984205D0124B984202D0124BA3
:1032E000984203D122F44072CB681A4322F0800343
:1032F0004C6943EA040202608B68C3620B68836214
:10330000054B984202D0054B984201D10B690363EB
:103310000123436110BD0000002C01400034014036
:103320000004004000080040000C004070B5054655
:103330006C6A0020E085E0842046FFF7C4FD70BD84
:103340000168C96821F490710268D1600168496917
:1033500021F0010102685161202180F83A10704784
:1033600010B504462068C06820F040002168C8609D
:10337000202084F839002046FFF760FF002010BDB0
:1033800070B5044694F83A00222847D1A068B0F5F9
:10339000805F0CD1206950B90025A66A206840687A
:1033A000C0F308003080A06A801CA06215E0A56A06
:1033B0000026A068B0F5805F03D0A06828B9206916
:1033C00018B920684068287004E02068406800F060
:1033D0007F002870A06A401CA062E08D401E80B271
:1033E000E085C8B92068C06820F020002168C86066
:1033F0002068C06820F480702168C8602068406937
:1034000020F0010021684861202084F83A0020461D
:10341000FFF7D0FE002070BD0020FCE70220FAE795
:1034200070B504462168096921F44051E2681143EE
:10343000226811612269A1681143626941EA0205AB
:103440002168C96841F20C62914329432268D16026
:103450002168496921F44071A269114322685161D0
:103460002D4A2168914202D1FFF7E2F801E0FFF70F
:10347000CFF800EBC00101EB001162689200B1FBD4
:10348000F2F100EBC00202EB001263689B00B2FB9A
:10349000F3F26423B2FBF3F202EBC20303EB02127A
:1034A000A1EB8201322202EB01116422B1FBF2F1A5
:1034B00001F0F00100EBC00202EB001263689B0018
:1034C000B2FBF3F26423B2FBF3F201EB021200EB66
:1034D000C00101EB001163689B00B1FBF3F100EB4D
:1034E000C00303EB00136668B600B3FBF6F3642673
:1034F000B3FBF6F303EBC30606EB0313A1EB830167
:10350000322303EB01116423B1FBF3F101F00F014E
:1035100011442268916070BD00380140014691F865
:103520003900212828D18868B0F5805F0BD108695F
:1035300048B90A6A1088C0F308000B685860086A26
:10354000801C086205E00B6A581C086218780B683A
:103550005860C88C401E80B2C88458B90868C068DA
:1035600020F080000B68D8600868C06840F0400018
:103570000B68D860002070470220FCE710B50648B1
:10358000FFF7A2FC00BF012204490348FFF7DAFD60
:103590000028F8D110BD00000C01002036000020EA
:1035A00000BFFEE7490050EAC12018BF04204A0DC1
:1035B00018BF40F0010040F2FF72B2EB515F08BF4C
:1035C00040F00200012808BF05207047024800684B
:1035D000C0F30220704700000CED00E010B5002899
:1035E00004DB0A07130E054A135406E00A07140EFB
:1035F000034A00F00F031B1FD45410BD00E400E089
:1036000018ED00E000BF7047FEB507460C461546B2
:103610001E4600940195029669463846FDF71AFF4A
:10362000FEBD000010B504460723012221460748CD
:10363000FFF7EAFF0548FEF76DF90A210348FEF798
:10364000B1F80248FDF7B6FF80B210BD940100202A
:103650002DE9F04107460C460025002608E03846D3
:10366000FFF7E0FF0544052000F0BCF8701CC6B26F
:10367000A642F4DBB5FBF4F0BDE8F08110B50B48D1
:103680000B490860002048600021094881600173EF
:10369000012101610021017581614FF46021C16147
:1036A000FDF78CFF0248FDF753FE10BD00240140DA
:1036B0009401002000B585B000BF00BF11488069AB
:1036C00040F008000F4988610846806900F0080052
:1036D000009000BF00BF00BF88150190012002903C
:1036E00003900320049001A90748FEF735FB00BFB3
:1036F00000224FF480710448FEF7D6FC00BF05B0ED
:1037000000BD000000100240000C014070B50546ED
:103710000C4607480749086008464460002181605C
:10372000C560FFF741FA0348FFF796FA70BD000045
:10373000001000404C0100202DE9F04781460D4665
:1037400014461E460021484600F0D4FE02D2012055
:10375000207001E000202070207820B9307810B966
:10376000002028601AE02078012807D148462968FF
:1037700000F0C0FE02D2C5F800900FE0207868B9D2
:10378000307801280AD1286800F02CFC07463A4618
:103790000B4604A0FCF748FD00202860207830701C
:1037A000BDE8F0876D61782070726573737572651E
:1037B0002076616C75653A25660A000010B50446EE
:1037C00000204FF0E0210861FFF7BEF92046E11725
:1037D00004EB5171C1F3CF01014A118010BD00000B
:1037E0002C00002070B504464FF47A7094FBF0F57D
:1037F00094FBF0F100FB114603E0074800F00EF8DF
:103800006D1E002DF9D12EB14FF47A7106FB01F037
:1038100000F004F870BD000040420F000146114A5C
:1038200012884A434FF0E0235A6100229A611A46F7
:10383000126942F001021A6100BF4FF0E0221069E4
:1038400000F001021AB100F48032002AF5D04FF0E6
:10385000E022126922F001024FF0E0231A610022F7
:103860009A6170472C00002000B585B000BF00BFF2
:103870002D48806940F040002B49886108468069E6
:1038800000F04000009000BF00BF00BF00BF00BFBD
:103890000846806940F0400088610846806900F071
:1038A0004000009000BF00BF00BF00BF00BF08463F
:1038B000806940F0040088610846806900F00400D7
:1038C000009000BF00BF00BF042001901748029085
:1038D0000220039001A91648FEF73EFA102001903D
:1038E00001A91348FEF738FA0120019001A91148F7
:1038F000FEF732FA022200210820FEF738FC0820E9
:10390000FEF725FC012200210A20FEF730FC0A20E8
:10391000FEF71DFC012211460620FEF728FC0620BA
:10392000FEF715FC05B000BD0010024000001110AC
:10393000001801400008014000BF054A126802F06B
:103940004002002AF9D0C2B2014B1B1D1A60704719
:10395000003801402DE9FF5F0446884617461D46A2
:10396000DDF83890AC4201DB002621E04C4501DC5B
:10397000114E1DE0384600F0A9FC0390A8EB0700AB
:1039800000F08CFC0290A5EB090000F087FC019090
:10399000281B00F083FC0090019900F0BDFB8346DA
:1039A000029900F0DBFC8246039900F047FB0646D3
:1039B000304604B0BDE8F09F0000C84300B585B0B4
:1039C00000BF00BF1E48806940F008001C498861A4
:1039D0000846806900F00800009000BF00BF00BFEB
:1039E00000BF00BF0846806940F04000886108467B
:1039F000806900F04000009000BF00BF00BF2020A1
:103A000001900120029003900320049001A90D4829
:103A1000FEF7A2F92020019001A90B48FEF79CF9BE
:103A200000BF012220210748FEF73EFB00BF00BF78
:103A3000012220210448FEF737FB00BF05B000BD7E
:103A400000100240000C01400018014008B5FEF7CC
:103A500043FB4FF4E01000F09FF84820FFF7AEFE64
:103A6000FFF7ACFFFFF726FEFFF7FEFE4FF4E13055
:103A700000F0C6F8FFF702FE00F046F841F61F41DD
:103A800040F2E730FFF742FE00BF00224FF48071A2
:103A90001748FEF709FB00BF00BF01222021144890
:103AA000FEF702FB00BF00BF012220211148FEF7F4
:103AB000FBFA00BF1BE00A210B20FFF7C9FD84B20F
:103AC00040F6426040F6D27314224FF4C871009061
:103AD0002046FFF73FFF08490860084B084A09499C
:103AE00005480068FFF728FE6420FFF77BFEE2E749
:103AF000000C01400018014020000020250000209B
:103B0000240000202800002000B585B000BF00BFC1
:103B10001F48806940F004001D498861084680699B
:103B200000F00400009000BF00BF00BF00BF00BF56
:103B30000846806940F0040088610846806900F00A
:103B40000400009000BF00BF00BF012002902020B1
:103B50000190022003900320049001A90D48FEF774
:103B6000FBF80220019001A90A48FEF7F5F800BF12
:103B7000012220210748FEF797FA00BF00BF00226C
:103B800002210448FEF790FA00BF05B000BD000016
:103B9000001002400008014030B58FB005460124F6
:103BA000282105A8FCF7A8FB14216846FCF7A4FB14
:103BB00001200590000406900020079002200C9040
:103BC000C1030D910E9505A8FEF78CFD04460CB1BE
:103BD00000BFFEE70F20009002200190002002901D
:103BE0004FF4806003900020049002216846FEF7A5
:103BF00043FC04460CB100BFFEE70FB030BD00002F
:103C000010B5044609480A49086008464460002186
:103C10008160C160016181610C214161FFF7FEF9A2
:103C2000012204490248FFF78DFA10BD0038014017
:103C30000C0100203600002010B500290AD00878B9
:103C4000002807D005487844FCF7ECFE002801D096
:103C5000002010BD0248784410BD0000CE0A0000CC
:103C6000C60A00002DE9C04130B4DFF8A0C23CEA2A
:103C7000111418BF3CEA131400F0EC8081EA03052C
:103C80001CEA111444EAD57418BF1CEA131500F09D
:103C9000C780A4EB05044FF0004545EAC12145EA81
:103CA000C32341EA505143EA525304F17F749942CD
:103CB00004F500344FEAC0204FEAC22208BF904208
:103CC00000F09C804FEA13650FF24016765D4FEAD4
:103CD000134506FB05F7C7F1807706FB07F74FEAA8
:103CE000D737A7FB03687642C8F58038A7FB06CE16
:103CF00038BFA8F1010807FB08E64FF0000EA6FB4D
:103D0000028CE6FB03CEDCF1000CCEF1004E38BF96
:103D1000AEF1010EA6FB0C584FF000074FF0000566
:103D2000E6FB0E87A1FB08C6A0FB07CE16EB0E062E
:103D300045F10005E1FB076515F1E04E7EBFA4F5F6
:103D400080345FEA46066D4116F1800745F10005B3
:103D50004FEA17274FEA066647EA0567A6F1DE46EF
:103D6000B6F1805F4FEA15251FD9384624F0010CC3
:103D700005EBC471BCF1FE6F01EB0C1102D8F0BC75
:103D8000BDE8008124425CBF01F5801E9EEAC47F2D
:103D900002D4F0BCBDE80081244238D4F0BCA1F1CB
:103DA000C041BDE8004100F016B94FEAD22242EA14
:103DB00043524FEAD323A7FB02864FEAD02040EAC2
:103DC000415007FB03661EEA0E0F4FEAD12105FBA7
:103DD000026658BFA6EB0056B6EB00564FEA520EED
:103DE0004EEAC37E18EB0E0E56EB530EBDD518EB04
:103DF00002085E417F1C55F10005B6E74FF48015BF
:103E00004FF000074FF000064FF00008ADE7F0BCA0
:103E10004FF0000001F1C04101F00041BDE8008118
:103E200011EA0C1F0CEA131500D00CE013EA0C1F6A
:103E300000F025804FF00000F0BC81EA030101F0A2
:103E40000041BDE80081F0BCBDE8004181EA03010A
:103E500000F0C1B8F0BCBDE8004170B500F06DF8ED
:103E6000097EFC3E00F007B881EA03014FF0000034
:103E700001F00041704781EA030100F0ACB8F0BCEA
:103E8000BDE800414FF0000021497047FFFDFBF9FC
:103E9000F7F5F4F2F0EEEDEBE9E8E6E4E3E1E0DE7D
:103EA000DDDBDAD8D7D5D4D3D1D0CFCDCCCBCAC8EF
:103EB000C7C6C5C4C2C1C0BFBEBDBCBBBAB9B8B716
:103EC000B6B5B4B3B2B1B0AFAEADACABAAA9A8A809
:103ED000A7A6A5A4A3A3A2A1A09F9F9E9D9C9C9BD7
:103EE0009A99999897979695959493939291919082
:103EF0008F8F8E8E8D8C8C8B8B8A89898888878713
:103F00008685858484838382828181800000FF0787
:103F10000000F87FB0FA80F310FA03F10AD0C3F181
:103F20001D0303F580634FEA41504FEA035202EB51
:103F3000D12170474FF0000070470EF1020E2EF0B5
:103F4000030E5EF8046B364205D4012A43EB0305E9
:103F500015F5001F12D8012841EB010C1CF5001FBC
:103F60000CD80ED14FEAD17C15F5001F0CEB4C0C90
:103F70000CF1020C08BF4CEBD37C04E04FF0080CB2
:103F800001E04FEAD37C0CEB4C0526FA05F606F06F
:103F90000706B6F1040C06D20EEB860CBDE87040A5
:103FA0004CF0010C6047DFE80CF0090B02024FF007
:103FB00000414FF00000A1F5002170BD19461046E8
:103FC000012851EB010418BFD4F5001484BF002070
:103FD00001F0004170BD0808A0F500114FEA310161
:103FE0007047000043004FEAD30C4FEA3C0C4340BB
:103FF0001FBF40070CF1605113F0FE4F70471CF0DB
:10400000006F03D100200CF0004170470CF000431A
:1040100043EA507010B540EACC0000F020FA00BF2F
:10402000000000924FEA0001FFF7D5BF4FF00041BA
:104030004FF00000A1F500217047000090EA010F49
:1040400048BF81F0004100F18E82421A3CBF801AC5
:1040500089184FEAD0524FF07F4C1CEA410FA2EB77
:10406000D15318BF9CEA026F00F03B804FF0004C28
:104070004CEA00204CEA012121FA03FC10EB0C0C65
:104080001ED202F1FF325FEA1C2040EBC25038BF63
:1040900070471CF07F0F4FEA400C18BFBCF17F4FF8
:1040A00038BF7047C3F12003994008BF20F00100DA
:1040B000BCF17F4F38BF7047A0F1C04000F015BA87
:1040C0004FEA3C00000A40EBC25028BF1CF0FF0F33
:1040D0004FEA400CE6D018BFBCF17F4F38BF7047A5
:1040E000EAE79CEA026F05D010EA5C0F08BF00F017
:1040F0000040704710B500F0B2F900BF64FBBE3E4F
:10410000401058BFC0F14040491058BFC1F1404174
:104110008142EFF3008070474FF47F0C1CEAD0120D
:104120001EBF1CEAD11392EA0C0F93EA0C0F00F0A9
:10413000858090EA010F48BF42F4807240F4000C81
:1041400041F400002CF07F4120F07F4000B5814217
:10415000A2EB03020FF2081CACEB504EC0F10000C2
:104160009EF800E04FEA4E0E00FB0EFC38BF4900FF
:104170004FEA2C1C02F5FA020CFB0EF34FEACE1E9E
:104180004FEA112C4FEAC1210EEB635E42EB224253
:104190000EFB0CFC4FEA1C5300FB03114FEA112CE1
:1041A0004FEA01310EFB0CFC4FEADC4C00FB0C111A
:1041B000C14228BF09184CEB03335DF804EB10EB48
:1041C000410143EBC250B2F57C0F38BF704729D58F
:1041D00012F0F00F1CBF00F1C04000F0004070472B
:1041E000008182838485868788898B8C8D8E8F91D0
:1041F0009293959697999A9C9D9FA0A2A3A5A7A8F4
:10420000AAACAEB0B2B3B5B7B9BCBEC0C2C5C7C91F
:10421000CCCED1D4D7D9DCDFE2E6E9ECF0F3F7FA83
:10422000FE0000004FEA400C0CF1807CBCF17E4F98
:1042300028BF7047B0F1C04000F057B990EA010FB5
:104240000CEAD11348BF42F48072624538BF63451F
:1042500007D213F47F0F16D080EA010000F000406F
:10426000704710B500F0FBF8097EFC3E00F005B881
:1042700080EA010000F00040704780EA010000F091
:10428000004000F032B912F47F0F04BF02487047BB
:1042900080EA010000F029B90000C07F10F0004161
:1042A00048BF4042B0FA80F310FA03F2C3F19D0315
:1042B0000BD051EAC35101EB1220530638BF7047AF
:1042C00000F1010008BF20F001007047B0FA80F350
:1042D00010FA03F2C3F19D030AD0D90501EB1220B5
:1042E000530638BF704700F1010008BF20F00100FD
:1042F0007047000050EA010C00F113801CF5000F1C
:1043000058BFBCF5000F01D48842704707D710F59D
:10431000000F58BF11F5000F15D48842704789422D
:1043200070471CF5000F04D5BCF5000FF7D581428E
:1043300070474FF0807C1CEB400F38BF1CEB410FE7
:1043400001D28142704710B500F089F892244900EB
:104350004FF000504FF08051FFF7D2BE4FF47F0C6A
:104360001CEAD0121EBF1CEAD11392EA0C0F93EA8A
:104370000C0F00F0478090EA010F48BF42F48072B2
:104380004FF0004C4CEA00204CEA012102EB030202
:10439000A0FB0113A2F50002002918BF43F001039E
:1043A0005B0028BF4FEA330342EB22425FEA132C43
:1043B0004CEBC2502EBFBCEB436FB2F57C0F704785
:1043C0004FEA036CBCF1004F08BF20F00100B2F5CA
:1043D0007C0F38BF70470BD582F0FF0212F5803F8B
:1043E000C8BF704700F1C040D8BF00F00040704720
:1043F00000F5000C5FEA4C0C48BF7047B0F1C040BC
:1044000000F073B890EA010F0CEAD11348BF42F4F0
:104410008072624538BF634504D280EA010000F033
:104420000040704710B500F01AF800BF8900013E47
:1044300000F007B800F009B85FEA410C5FEA1C6CB5
:1044400008D080EA010000F050B85FEA400C5FEA53
:104450001C6CF6D14FF00040A0F5800070470EF1C3
:10446000020E2EF0030E5EF8044B244204D44FEAF1
:104470004102B2F17F4F11D84FEA4003B3F17F4FB1
:104480000CD80ED14FEAD07CB2F17F4F0CEB4C0C24
:104490000CF1020C08BF4CEBD17C04E04FF0080C8F
:1044A00001E04FEAD17C0CEB4C0324FA03F404F056
:1044B0000704B4F1040C06D20EEB840CBDE81040E6
:1044C0004CF0010C6047DFE80CF0070802024FF0E7
:1044D0000040A0F5800010BD0846420018BFD2F190
:1044E000807288BF00F0004010BDFF2141EAD0502B
:1044F000C005704751EA000C00F113801CF5000F55
:1045000058BFBCF5000F01D48142704707D711F5A1
:10451000000F58BF10F5000F15D481427047894233
:1045200070471CF5000F04D5BCF5000FF7D5884285
:1045300070474FF0807C1CEB410F38BF1CEB400FE5
:1045400001D28842704780EA010081EA000180EAD6
:104550000100FFF7F8BE000090EA010F48BF81F0AC
:1045600000413FF572AD421A04D882F00042A0EB40
:10457000020011444FEAD0524FF07F4C1CEA410F29
:10458000A2EBD15318BF9CEA026F4AD04FF0004C07
:104590004CEA00204CEA012121FA03FCB0EB0C0CA0
:1045A0000FD412F0FE0F36D05FEA4C001DD500127A
:1045B00040EBC25038BF70471CF03F0F18BF704728
:1045C0000BE0A2F101025FEA1C2040EBC25038BFB1
:1045D00070471CF07F0F18BF7047C3F1200399404C
:1045E00014BF401E20F00100704780084FEA1223DC
:1045F00008BF7047B0FA80FCA2EB0C02CCF1280C8B
:1046000060FA0CF093EA122F04BF00EBC25070471F
:104610004FEAC3707047130A5FEADC1008BF7047A7
:10462000F6E79CEA026F04D010EA5C0F08BF002096
:10463000704710B5FFF713FF40DFF63E81F00040F2
:104640007047FBF75DBF00000000000000000102A2
:10465000030406070809000000000102030400002B
:1046600002400000000000A0000000000540000023
:10467000000000C8000000000C4000000000409C4A
:1046800000000000194000000020BCBE0000000037
:1046900034400000BFC91B8E00000004B54000007C
:1046A000504BCFD06607E2CF010000006C41000004
:1046B0003E8251AADFEEA73401000000D94200007B
:1046C000DCB5A0E23A301F97FFFFFFFFB4450000C2
:1046D000FD25A0C8E9A3C14FFFFFFFFFFF3F00007A
:1046E0000000008000000000FF3F0000000000808C
:1046F00000000000304700080000002044000000D7
:104700006C0100087447000844000020E407000022
:10471000880100081C00000043000000F8FFFFFFB4
:104720000C0000000E0000000F0000002E00000032
:104730000024F40000000000000000000000000061
:104740000000000000000000000000000000000069
:104750000000000000000000000000000000000059
:104760000000000000000000000000001000000039
:044770000100000044
:04000005080001E509
:00000001FF
